:0A0000000C9439000C9400000C94DD
:10000A0000000C9400000C9400000C9400000C9466
:10001A0000000C9400000C9400000C9400000C9456
:10002A0000000C9400000C9400000C9400000C9446
:10003A0000000C9400000C9400000C9400000C9436
:10004A0000000C9400000C9400000C9400000C9426
:10005A0000000C9400000C9426010C940000070088
:10006A000100020368000000F894EE27EFBBF1E0FC
:10007A00F5BFE5BFF8E1A895A4B7A77FA4BFF093A1
:10008A006000E09360008DE0A2E0BB27ED938A95C3
:10009A00E9F780E098E0A0E0B1E0ED930197E9F795
:1000AA00EAE6F0E085919591009761F0A591B59106
:1000BA0005901590BF01F00105900D920197E1F7A7
:1000CA00FB01F0CFE0E0EEBBEFEFEDBFE8E0EEBF03
:1000DA00C0E0D3E00C949100AA93E0910203E030CF
:1000EA0041F4E0910303E03011F45C9801C05C9A9A
:1000FA0001C00FC0E881E03061F4A0910103E4E09F
:10010A000E94A20207C0AA93E881E03011F4E4E059
:10011A0001C0E0E021960895E0E8E0936100E0E0A4
:10012A00E0936100E5B9E4B9E8B9E7B9EBB9E0E110
:10013A00EAB9E0E0E4BDE5BDE6BDE7BDE8BDE093B0
:10014A008000E0938100E0938500E0938400E093CF
:10015A008700E0938600E0938900E0938800E093AB
:10016A008B00E0938A00E093B600E093B000E0933E
:10017A00B100E093B200E093B300E093B400E093DF
:10018A006900EDBBE0936800E0936E00E0936F00B6
:10019A00E0937000E093C100E0E8E0BFE0E0E093A4
:1001AA007B00E0937F00E0937A00ECBDEA93EA9348
:1001BA00E3E0F3E0FA93EA93E4E0EA93E7E0F3E0BA
:1001CA00FA93EA93E1E7F0E0FA93EA93A8E8B0E059
:1001DA0003D07894FFCFFFCFBA93AA93F19AE7E0BE
:1001EA00E0930203EF81F885E0930F03F093100385
:1001FA00EE81E0931203EC81FD81E0930C03F0930E
:10020A000D03EA81FB81E0931303F0931403E88161
:10021A00F981E0931503F0931603E8B1E063E8B9B6
:10022A00EA85E03011F0E1E002C0E985EE0FE093E3
:10023A00BA00E091BC00E078E564E093BC002B963C
:10024A0008950A921A92FA926A937A938A939A93DF
:10025A00AA93BA93EA93FA93EFB7EA930E94A70292
:10026A00109101030091000330910E0320910203C3
:10027A00E12FA0910F03B0911003F0E0EA0FFB1FEA
:10028A00AF01E091B900E87FE83011F420E002C044
:10029A00E03119F4E0910B0310C0E83111F0E832B3
:1002AA0041F5031798F4E02F0F5FA0910C03B0916A
:1002BA000D03F0E0AE0FBF1FEC91E093BB00E0919D
:1002CA00BC00EF70E068E093BC0012C0E09111033B
:1002DA001E1768F4E0910B03E160E0930B03F098BA
:1002EA00E091BC00EF70E06AE093BC000DC138C039
:1002FA000BC1E03531F4E091BB00DA01EC931F5FEA
:10030A0002C0E03489F4E0911103E1501E1728F08D
:10031A00E091BC00EF70E06804C0E091BC00EF70AF
:10032A00E06CE093BC00F0C0E83531F4E091BB002A
:10033A00DA01EC931F5F02C0E03209F402C0E03335
:10034A0009F402C0E83469F4203051F4F09B03C088
:10035A00031728F005C0E09111031E1708F424E0E2
:10036A00CCC0E83331F422E0E091BC00EF70E068E1
:10037A00C8C0E83611F0E83711F422E005C0E036CB
:10038A0011F0E037A1F420E010E0F098E0911203B8
:10039A00E03031F421E0E091BC00EF70E06804C085
:1003AA00E091BC00EF70E06CE093BC00ADC0E038B7
:1003BA0011F0E03939F5F09B02C021E09EC0E091CE
:1003CA00BB00DA01EC931F5FE09112031E17C0F421
:1003DA00E0911303F0911403309711F426E08DC0D5
:1003EA00A0E0E0911303F09114030995E03039F08D
:1003FA00E091BC00EF70E06CE093BC0085C001C0E6
:10040A00F09A02C0E83809F402C0E83939F4E091F8
:10041A00BC00EF70E068E093BC0076C0E03AB1F44B
:10042A00E091BC00EF70E06CE093BC00F19AE091BF
:10043A001303F0911403309739F0A1E0E09113030C
:10044A00F0911403099501C026E05EC0E03B11F467
:10045A0022E002C0E83AB1F4E0911503F0911603E4
:10046A00309759F0A0E0E0911503F0911603099531
:10047A003E2FE03011F020E002C026E03EC000E04E
:10048A00F09802C0E83BF9F4F09B02C021E035C0C5
:10049A00E02F0F5FA0910C03B0910D03F0E0AE0FB7
:1004AA00BF1FEC91E093BB00031728F4E091BC0056
:1004BA00EF70E06C05C0F09AE091BC00EF70E06864
:1004CA00E093BC0021C0E03C11F0E83C99F4E091D3
:1004DA00BC00EF70E06CE093BC00E0911503F09172
:1004EA001603309731F0A1E0E0911503F09116035D
:1004FA00099509C0E03041F423E0E091BC00EF70B7
:10050A00E06DE093BC00F19A10930103009300039D
:10051A002093020330930E030E94AE022696E991BD
:10052A00EFBFF991E991B991A9919991899179913D
:10053A006991F990199009901895AE17E1E008F0C1
:10054A00EE2708955A934A933A932A931A930A9351
:10055A0008955D814C813B812A8119810881089522
:00000001FF
