:100000000C9462000C948A000C948A000C948A0070
:100010000C948A000C948A000C948A000C948A0038
:100020000C948A000C948A000C948A000C948A0028
:100030000C948A000C948A000C948A000C948A0018
:100040000C9490040C948A000C945E040C94380474
:100050000C948A000C948A000C948A000C948A00F8
:100060000C94DA040C948A0000000000240027009D
:100070002A0000000000250028002B0000000000DE
:1000800023002600290004040404040404040202DA
:100090000202020203030303030301020408102007
:1000A0004080010204081020010204081020000012
:1000B0000008000201000003040700000000000027
:1000C0000000080611241FBECFEFD8E0DEBFCDBF71
:1000D00022E0A4E2B1E001C01D92AF37B207E1F720
:1000E00011E0A0E0B1E0ECEBFFE002C005900D9262
:1000F000A432B107D9F710E0C2E6D0E004C02197DE
:10010000FE010E948107C136D107C9F70E9441064E
:100110000C94DC070C940000E091C701F091C80139
:10012000309729F01092C0011092BF0109940895F0
:10013000CF93DF93AC01E091C901F091CA013097F0
:10014000F1F09091C2018091C1019817C0F090E048
:10015000292F30E02617370754F4D901A45DBE4F8C
:10016000EA01C20FD31F88818C939F5FF1CF109259
:10017000C2016093C101CB01DF91CF910994DF915E
:10018000CF910895CF92DF92EF92FF920F931F933A
:10019000CF93DF936C017A018B01C0E0D0E0CE15E4
:1001A000DF0589F0D8016D918D01D601ED91FC91AB
:1001B0000190F081E02DC6010995892B11F47E0193
:1001C00002C02196ECCFC701DF91CF911F910F9113
:1001D000FF90EF90DF90CF900895FC01918D828D7C
:1001E000981761F0828DDF01A80FB11D5D968C918B
:1001F000928D9F5F9F73928F90E008958FEF9FEF96
:100200000895FC01918D828D981731F0828DE80F51
:10021000F11D858D90E008958FEF9FEF0895FC010B
:10022000918D228D892F90E0805C9F4F821B9109D8
:100230008F739927089586ED91E00E940F0121E0C8
:10024000892B09F420E0822F0895FC01848DDF01C1
:10025000A80FB11DA35ABF4F2C91848D90E0019639
:100260008F739927848FA689B7892C93A089B18928
:100270008C9180648C93938D848D981306C0028832
:10028000F389E02D80818F7D80830895EF92FF9226
:100290000F931F93CF93DF93EC0181E0888F9B8DA9
:1002A0008C8D981305C0E889F989808185FD24C06B
:1002B000F62E0B8D10E00F5F1F4F0F731127E02EEE
:1002C0008C8DE8120CC00FB607FCFACFE889F989CB
:1002D000808185FFF5CFCE010E942501F1CF8B8D66
:1002E000FE01E80FF11DE35AFF4FF0820B8FEA8900
:1002F000FB898081806207C0EE89FF896083E8897D
:10030000F98980818064808381E090E0DF91CF91E2
:100310001F910F91FF90EF900895CF93DF93EC0121
:10032000888D8823C9F0EA89FB89808185FD05C015
:10033000A889B9898C9186FD0FC00FB607FCF5CF4F
:10034000808185FFF2CFA889B9898C9185FFEDCF97
:10035000CE010E942501E7CFDF91CF91089580E083
:1003600090E0892B29F00E941B0181110C94000060
:100370000895833081F028F4813099F08230A1F023
:1003800008958730A9F08830B9F08430D1F4809195
:1003900080008F7D03C0809180008F7780938000E4
:1003A000089584B58F7702C084B58F7D84BD08958C
:1003B0008091B0008F7703C08091B0008F7D8093D3
:1003C000B0000895CF93DF93282F30E0F901E25574
:1003D000FF4F8491F901E656FF4FD491F901EA5796
:1003E000FF4FC491CC2391F081110E94B901EC2FF1
:1003F000F0E0EE0FFF1FE458FF4FA591B491EC9190
:10040000ED2381E090E021F480E002C080E090E004
:10041000DF91CF9108951F93CF93DF93282F30E082
:10042000F901E255FF4F8491F901E656FF4FD4914F
:10043000F901EA57FF4FC491CC23C9F0162F81115F
:100440000E94B901EC2FF0E0EE0FFF1FEE58FF4FB6
:10045000A591B4918FB7F894111105C09C91ED2F1F
:10046000E095E92302C0EC91ED2BEC938FBFDF9177
:10047000CF911F910895CF93DF9390E0FC01E65652
:10048000FF4F2491FC01EA57FF4F8491882361F1CB
:1004900090E0880F991FFC01E859FF4FC591D49156
:1004A000FC01EE58FF4FA591B491611109C09FB7AF
:1004B000F8948881209582238883EC912E230BC0A9
:1004C000623061F49FB7F8943881822F809583233E
:1004D0008883EC912E2B2C939FBF06C08FB7F89486
:1004E000E8812E2B28838FBFDF91CF9108951F9332
:1004F000CF93DF93182FEB0161E00E943B0220971E
:1005000011F460E004C0CF3FD10539F461E0812FE0
:10051000DF91CF911F910C940B02E12FF0E0E25597
:10052000FF4FE491E330F9F048F4E130B9F0E23004
:10053000A1F584B5806284BDC8BD34C0E730E9F060
:10054000E83019F1E43049F58091800080628093B1
:100550008000D0938B00C0938A0024C084B580684B
:1005600084BDC7BD1FC080918000806880938000DB
:10057000D0938900C093880015C08091B000806836
:100580008093B000C093B3000DC08091B000806232
:100590008093B000C093B40005C0C038D1050CF002
:1005A000B5CFAFCFDF91CF911F9108958E3008F076
:1005B0008E508770806480937C0080917A00806484
:1005C00080937A0080917A0086FDFCCF809178003C
:1005D0002091790090E0922B08953FB7F894809194
:1005E000B8019091B901A091BA01B091BB0126B5B3
:1005F000A89B05C02F3F19F00196A11DB11D3FBF5B
:10060000BA2FA92F982F8827820F911DA11DB11DE8
:10061000BC01CD0142E0660F771F881F991F4A95E4
:10062000D1F7089585ED8093BC008091BC0084FDD6
:10063000FCCF1092BE01089540916C01262F30E04E
:10064000240F311D21323105DCF42091BE0124300C
:10065000C9F4FC0180E090E0861758F430916C01F9
:100660002191DC01A45BBE4FA30FB11D2C93019619
:10067000F3CF80916C01680F60936C0180E0089566
:1006800081E0089582E008950895E091C20180918B
:10069000C101E81730F4F0E0E45DFE4F808190E0A6
:1006A00008958FEF9FEF08959091C2018091C1014D
:1006B000981750F4E92FF0E0E45DFE4F208130E020
:1006C0009F5F9093C20102C02FEF3FEFC9010895D1
:1006D0008091C10190E02091C201821B910908958F
:1006E000CF93DF9300D0CDB7DEB7CB01642F498322
:1006F0005A830E941C034981842F5A81952F0F90A1
:100700000F90DF91CF910895CF93DF931F92CDB7D4
:10071000DEB7698361E0CE0101960E941C0381E08F
:1007200090E00F90DF91CF91089580912B0181305F
:1007300011F1B0F0823009F440C0833009F047C0B5
:10074000809125010E94D6022FEF30E0DC010E944B
:100750007A072FEF33E040E050E00E948C0735C06D
:100760008091D4019091D501809326018091D3018D
:10077000809327012CC08CE00E94E20121E00197C8
:1007800009F020E0209326018091D1019091D201BF
:10079000809327018091CF019091D001809328010F
:1007A0008091CD019091CE01809329018091CB0160
:1007B0009091CC0180932A010AC0809125010E946A
:1007C000E20121E0019709F020E02093260145E0B5
:1007D00050E066E271E083E792E00C947003CF93FF
:1007E000DF9383E792E00E945403D82F80932B017C
:1007F00083E792E00E945403C82F8093250183E78A
:1008000092E00E94540380932401D23031F4682F87
:100810008C2FDF91CF910C940B02D33021F5C9308E
:10082000E1F048F4C630F9F4BC0177277093CC01AD
:100830006093CB0118C0CA3049F0CB30A1F4BC01A1
:1008400077277093D2016093D1010DC0BC01772747
:100850007093D0016093CF0106C0BC0177277093DD
:10086000CE016093CD01DF91CF9108950E9487075B
:100870001F920F920FB60F9211242F933F934F9315
:100880005F936F937F938F939F93AF93BF93EF93F8
:10089000FF9386ED91E00E942501FF91EF91BF91BA
:1008A000AF919F918F917F916F915F914F913F9108
:1008B0002F910F900FBE0F901F9018951F920F92BF
:1008C0000FB60F9211242F938F939F93EF93FF9363
:1008D000E091E601F091E7018081E091EC01F09177
:1008E000ED0182FD12C090818091EF018F5F8F73C7
:1008F0002091F001821751F0E091EF01F0E0EA520F
:10090000FE4F958F8093EF0101C08081FF91EF91A1
:100910009F918F912F910F900FBE0F901F90189560
:100920001F920F920FB60F9211242F933F938F9324
:100930009F93AF93BF938091B4019091B501A09123
:10094000B601B091B7013091B30123E0230F2D37E9
:1009500020F40196A11DB11D05C026E8230F0296C3
:10096000A11DB11D2093B3018093B4019093B501F3
:10097000A093B601B093B7018091B8019091B901ED
:10098000A091BA01B091BB010196A11DB11D809348
:10099000B8019093B901A093BA01B093BB01BF9184
:1009A000AF919F918F913F912F910F900FBE0F901C
:1009B0001F9018951F920F920FB60F9211242F932C
:1009C0003F934F935F936F937F938F939F93AF93D7
:1009D000BF93EF93FF938091B900887F803609F42D
:1009E0009CC068F5883209F45BC090F4803109F44A
:1009F00054C038F4882309F4F6C0883009F44DC097
:100A0000F6C0883109F44CC0803209F45DC0EFC0F3
:100A1000803409F468C048F4803309F455C0883341
:100A200009F0E5C080938F01D8C0803509F44FC02C
:100A3000883509F45DC0883409F0D9C0D6C088393A
:100A400009F4C7C0A8F4883709F467C038F48836B9
:100A500009F463C0803709F460C0C9C0883809F45C
:100A6000B8C0803909F45FC0803809F0C0C05BC0ED
:100A7000803B09F486C038F4803A09F466C0883AAD
:100A800009F47FC0B4C0803C09F4A7C0883C09F4D5
:100A9000A4C0883B09F48AC0AAC08091B20110C0EA
:100AA0009091B1018091B001981770F5E091B1017A
:100AB00081E08E0F8093B101F0E0E057FE4F80811E
:100AC0008093BB0085EC86C080938F018EC0E0913F
:100AD000B10181E08E0F8093B1018091BB00F0E005
:100AE000E057FE4F80839091B1018091B0016EC0BC
:100AF000E091B10181E08E0F8093B1018091BB0044
:100B0000F0E0E057FE4F80838091BD0181116DC000
:100B100081E08093BC0184EA61C083E08093BE01E0
:100B200010928E01CFCF80918E01803208F051C09B
:100B3000E0918E0181E08E0F80938E018091BB0049
:100B4000F0E0E259FE4F8083BDCF85EC8093BC007E
:100B50001092BE0180918E01803230F4E0918E01BE
:100B6000F0E0E259FE4F108260918E0170E0E0915A
:100B7000C301F091C4018EE691E0099510928E01B7
:100B800036C084E08093BE0110926D0110926C011A
:100B9000E091C501F091C601099580916C01811128
:100BA00005C081E080936C0110924C01E0916D01D1
:100BB00081E08E0F80936D01F0E0E45BFE4F808159
:100BC0008093BB0090916D0180916C01981708F49F
:100BD00079CF85E88093BC000AC085EC8093BC0087
:100BE0001092BE0104C010928F010E941203FF9167
:100BF000EF91BF91AF919F918F917F916F915F9195
:100C00004F913F912F910F900FBE0F901F9018950D
:100C1000E6EDF1E01382128288EE93E0A0E0B0E00E
:100C200084839583A683B78328E031E031832083D2
:100C300025EC30E03587248724EC30E037872687A1
:100C400020EC30E0318B208B21EC30E0338B228B99
:100C500022EC30E0358B248B26EC30E0378B268B72
:100C6000118E128E138E148EE3E7F2E0138212823D
:100C700084839583A683B78388E191E09183808301
:100C80000895789484B5826084BD84B5816084BD04
:100C900085B5826085BD85B5816085BD80916E001A
:100CA000816080936E00109281008091810082604B
:100CB0008093810080918100816080938100809188
:100CC00080008160809380008091B1008460809377
:100CD000B1008091B00081608093B00080917A0073
:100CE000846080937A0080917A00826080937A0099
:100CF00080917A00816080937A0080917A00806888
:100D000080937A001092C10060E08EE00E943B0266
:100D100060E082E00E943B0261E08CE00E943B02C6
:100D200061E08BE00E943B0261E08AE00E943B02AE
:100D300061E089E00E943B0261E086E00E943B02A4
:100D4000E091E601F091E70192E09083E091E20109
:100D5000F091E3011082E091E401F091E5018FEC64
:100D600080831092EE01E091EA01F091EB0186E0C0
:100D70008083E091E801F091E901808180618083C6
:100D8000E091E801F091E901808188608083E09141
:100D9000E801F091E901808180688083E091E801B9
:100DA000F091E90180818F7D80839093BA008CE877
:100DB00090E09093C6018093C50188E990E09093FC
:100DC000C4018093C3011092C2011092C10110921C
:100DD000C0011092BF011092BE0181E08093BD015D
:100DE0001092BC0161E082E10E940B0261E083E1AC
:100DF0000E940B028091B9008E7F8093B900809190
:100E0000B9008D7F8093B90088E48093B80085E4B1
:100E10008093BC0085E993E09093C8018093C7015B
:100E20008FEE93E09093CA018093C90188248A943D
:100E300093E0992EA12CB12C8EE00E94D6022FEFC8
:100E400030E0DC010E947A07A50194010E948C0722
:100E50003093D5012093D40182E00E94E20121E089
:100E6000019709F020E02093D3016091D1017091A6
:100E7000D2018BE00E9477026091CF017091D00186
:100E80008AE00E9477026091CD017091CE0189E0E5
:100E90000E9477026091CB017091CC0186E00E94A4
:100EA00077020E94ED022B013C0184E6C82ED12C72
:100EB000E12CF12C0E94ED02DC01CB018419950993
:100EC000A609B709883E9340A105B10558F021E075
:100ED000C21AD108E108F10888EE480E83E0581ED6
:100EE000611C711CC114D104E104F10419F70E94C2
:100EF000AF01A2CF0E94CD07B7FF0895821B930BCD
:100F00000895EE0FFF1F0590F491E02D099481E004
:100F100090E0F8940C94DC07052E97FB1EF40094E7
:100F20000E94A30757FD07D00E94AB0707FC03D020
:100F30004EF40C94A30750954095309521953F4F62
:100F40004F4F5F4F089590958095709561957F4FB5
:100F50008F4F9F4F0895A1E21A2EAA1BBB1BFD01C4
:100F60000DC0AA1FBB1FEE1FFF1FA217B307E40788
:100F7000F50720F0A21BB30BE40BF50B661F771FE0
:100F8000881F991F1A9469F76095709580959095C0
:100F90009B01AC01BD01CF010895A29FB001B39F99
:100FA000C001A39F700D811D1124911DB29F700D72
:100FB000811D1124911D0895F894FFCF01000000B8
:100FC000000000004601C2000F01ED0001018D018B
:100FD00000000000840370036803540345034403C6
:100FE000FFFFFFFFFFFFFFFFFFFFFFFFFFFFFFFF11
:100FF000FFFFFFFFFFFFFFFFFFFFFFFFFFFFFFFF01
:10100000700D811D1124911DB29F700D811D112441
:10101000911D0895F894FFCF01000000000000002A
:101020004601C2000F01ED0001018D01000000002A
:10103000840370036803540345034403FFFFFFFF69
:10104000FFFFFFFFFFFFFFFFFFFFFFFFFFFFFFFFB0
:10105000FFFFFFFFFFFFFFFFFFFFFFFFFFFFFFFFA0
:10106000FFFFFFFFFFFFFFFFFFFFFFFFFFFFFFFF90
:10107000FFFFFFFFFFFFFFFFFFFFFFFFFFFFFFFF80
:10108000AF919F918F917F916F915F914F913F9120
:101090002F910F900FBE0F901F9018958AE092E04D
:1010A0000E94B10621E0892B09F420E0822F0895E7
:1010B00010920D0210920C0288EE93E0A0E0B0E0D6
:1010C00080930E0290930F02A0931002B09311022E
:1010D00083E291E090930B0280930A0285EC90E00A
:1010E000909317028093160284EC90E0909319027B
:1010F0008093180280EC90E090931B0280931A0278
:1011000081EC90E090931D0280931C0282EC90E0B1
:1011100090931F0280931E0286EC90E09093210230
:101120008093200210922302109224021092250232
:10113000109226020895CF92DF92EF92FF920F93C2
:101140001F93CF93DF937C016A01EB0100E010E075
:101150000C151D0571F06991D701ED91FC9101907D
:10116000F081E02DC7010995892B19F00F5F1F4F02
:10117000EFCFC801DF91CF911F910F91FF90EF90BA
:10118000DF90CF9008954F925F926F927F92AF92CF
:10119000BF92CF92DF92EF92FF920F931F93CF9364
:1011A000DF93CDB7DEB729013A01621B730B840BC5
:1011B000950B29893A894B895C892A193B094C0985
:1011C0005D09298B3A8B4B8B5C8B9B01AC01698948
:1011D0007A898B899C890E941B09E418F508060905
:1011E0001709A80197010E944D092A0D3B1D4C1DAE
:1011F0005D1DCA01B901DF91CF911F910F91FF9041
:10120000EF90DF90CF90BF90AF907F906F905F9006
:101210004F90089508950E9439050E940A090E947E
:101220008D00CEEDD6E00E94D9002097E1F30E9418
:10123000DE06F9CF0895DB018F939F930E946C091E
:10124000BF91AF91A29F800D911DA39F900DB29F62
:10125000900D11240895A1E21A2EAA1BBB1BFD01BB
:101260000DC0AA1FBB1FEE1FFF1FA217B307E40785
:10127000F50720F0A21BB30BE40BF50B661F771FDD
:10128000881F991F1A9469F76095709580959095BD
:101290009B01AC01BD01CF010895052E97FB1EF403
:1012A00000940E94640957FD07D00E942B0907FC97
:1012B00003D04EF40C9464095095409530952195D7
:1012C0003F4F4F4F5F4F0895909580957095619572
:1012D0007F4F8F4F9F4F08950E947D09A59F900DCE
:1012E000B49F900DA49F800D911D11240895EE0FC1
:1012F000FF1F0590F491E02D0994A29FB001B39FC8
:10130000C001A39F700D811D1124911DB29F700D0E
:10131000811D1124911D0895F894FFCF0100000054
:1013200003000F000E00040002000100000000A4F2
:101330000277021D02250238024702000000002F3A
:10134000079B08B106CA06BC060D0700FFFFFFFF9A
:10135000FFFFFFFFFFFFFFFFFFFFFFFFFFFFFFFF9D
:10136000FFFFFFFFFFFFFFFFFFFFFFFFFFFFFFFF8D
:10137000FFFFFFFFFFFFFFFFFFFFFFFFFFFFFFFF7D
:10138000CF93DF93CDB7DEB7A1970FB6F894DEBF4A
:101390000FBECDBF7C01F42FD52ECB0119A2223078
:1013A00008F42AE08E010F5D1F4F822E912CA12C94
:1013B000B12C6F2F7D2DA50194010E94540AF22FAC
:1013C000D32ECA01015011096A3014F4E0E301C0C0
:1013D000E7E3E60FD801EC93232B242B252B49F7C9
:1013E000B801C7010E948909A1960FB6F894DEBF23
:1013F0000FBECDBFDF91CF911F910F91FF90EF9066
:10140000DF90BF90AF909F908F9008952115310588
:1014100041F4DC01ED91FC910190F081E02D642F0D
:1014200009940C94B7099A01AB0160E070E00C9448
:10143000060A0F931F93CF93DF93EC019A01AB0140
:1014400060E070E00E94060A8C01CE010E94A109B2
:10145000800F911FDF91CF911F910F9108950895F3
:101460000E94A4060E942F0A0E948E00C4EAD7E0C0
:101470000E94F7002097E1F30E94A407F9CF089596
:1014800097FB072E16F4009407D077FD09D00E9431
:10149000950A07FC05D03EF4909581959F4F0895DD
:1014A000709561957F4F0895A1E21A2EAA1BBB1B70
:1014B000FD010DC0AA1FBB1FEE1FFF1FA217B30720
:1014C000E407F50720F0A21BB30BE40BF50B661F36
:1014D000771F881F991F1A9469F7609570958095FA
:1014E00090959B01AC01BD01CF010895052E97FB9E
:1014F0001EF400940E948D0A57FD07D00E94540AE2
:1015000007FC03D04EF40C948D0A5095409530950D
:1015100021953F4F4F4F5F4F08959095809570955F
:1015200061957F4F8F4F9F4F0895AA1BBB1B51E1C1
:1015300007C0AA1FBB1FA617B70710F0A61BB70B43
:10154000881F991F5A95A9F780959095BC01CD01E8
:101550000895EE0FFF1F0590F491E02D099410E01F
:10156000C6ECD0E004C0FE010E94AB0A2296C83C43
:10157000D107C9F7F894FFCF1B01000000A3416415
:101580006166727569742066696E6765722064654C
:1015900074656374207465737400466F756E64209F
:1015A00066696E6765727072696E742073656E73BA
:1015B0006F72210057616974696E6720666F7220CF
:1015C00076616C69642066696E6765722E2E2E00E6
:1015D000446964206E6F742066696E642066696E6B
:1015E0006765727072696E742073656E736F7220B6
:1015F0003A2800496D6167652074616B656E004E25
:101600006F2066696E6765722064657465637465D2
:101610006400436F6D6D756E69636174696F6E20F0
:101620006572726F7200496D6167696E67206572DD
:10163000726F7200556E6B6E6F776E206572726F8F
:101640007200496D61676520636F6E7665727465BF
:101650006400496D61676520746F6F206D657373F9
:101660007900436F756C64206E6F742066696E64D8
:101670002066696E6765727072696E742066656156
:10168000747572657300466F756E642061207072A8
:10169000696E74206D617463682100466F756E64B5
:1016A000204944202300207769746820636F6E66A8
:1016B0006964656E6365206F662000446964206E0E
:1016C0006F742066696E642061206D6174636800C8
:1016D00000000000AA03610915048903FD03FC034F
:1016E00000000000F5076109770790078207D3071C
:1016F0000D0A006E616E00696E66006F766600000E
:10170000E02D0994A29FB001B39FC001A39F700D6B
:10171000811D1124911DB29F700D811D1124911DF9
:101720000895F894FFCF010000000F0002000E00A2
:1017300001200000000000E702BA02600268027B9C
:10174000028A020000000013077F089506AE06A07B
:1017500006F1060D0A006E616E00696E66006F7616
:1017600066002E00FFFFFFFFFFFFFFFFFFFFFFFFF1
:10177000FFFFFFFFFFFFFFFFFFFFFFFFFFFFFFFF79
:10178000FFFFFFFFFFFFFFFFFFFFFFFFFFFFFFFF69
:10179000FFFFFFFFFFFFFFFFFFFFFFFFFFFFFFFF59
:1017A000FFFFFFFFFFFFFFFFFFFFFFFFFFFFFFFF49
:107E0000112484B714BE81FFF0D085E080938100F7
:107E100082E08093C00088E18093C10086E0809377
:107E2000C20080E18093C4008EE0C9D0259A86E02C
:107E300020E33CEF91E0309385002093840096BBD3
:107E4000B09BFECF1D9AA8958150A9F7CC24DD24C4
:107E500088248394B5E0AB2EA1E19A2EF3E0BF2EE7
:107E6000A2D0813461F49FD0082FAFD0023811F036
:107E7000013811F484E001C083E08DD089C08234E0
:107E800011F484E103C0853419F485E0A6D080C0E4
:107E9000853579F488D0E82EFF2485D0082F10E0AE
:107EA000102F00270E291F29000F111F8ED06801E7
:107EB0006FC0863521F484E090D080E0DECF843638
:107EC00009F040C070D06FD0082F6DD080E0C81688
:107ED00080E7D80618F4F601B7BEE895C0E0D1E017
:107EE00062D089930C17E1F7F0E0CF16F0E7DF06D8
:107EF00018F0F601B7BEE89568D007B600FCFDCFD4
:107F0000A601A0E0B1E02C9130E011968C91119780
:107F100090E0982F8827822B932B1296FA010C0160
:107F200087BEE89511244E5F5F4FF1E0A038BF0790
:107F300051F7F601A7BEE89507B600FCFDCF97BE46
:107F4000E89526C08437B1F42ED02DD0F82E2BD052
:107F50003CD0F601EF2C8F010F5F1F4F84911BD097
:107F6000EA94F801C1F70894C11CD11CFA94CF0C13
:107F7000D11C0EC0853739F428D08EE10CD085E9AC
:107F80000AD08FE07ACF813511F488E018D01DD067
:107F900080E101D065CF982F8091C00085FFFCCF94
:107FA0009093C60008958091C00087FFFCCF809118
:107FB000C00084FD01C0A8958091C6000895E0E648
:107FC000F0E098E1908380830895EDDF803219F02E
:107FD00088E0F5DFFFCF84E1DECF1F93182FE3DFCA
:107FE0001150E9F7F2DF1F91089580E0E8DFEE27F6
:107FF000FF270994FFFFFFFFFFFFFFFFFFFF0404C0
:00000001FF
