:080000000C9439000C9400007F
:100008000C9400000C9400000C9400000C94000068
:100018000C9400000C9400000C9400000C94000058
:100028000C9400000C9400000C9400000C94000048
:100038000C9400000C9400000C9490020C940000A6
:100048000C9400000C9400000C9400000C94000028
:100058000C9400000C9400000C94BB030C9400005A
:1000680007000100020368000000F894EE27EFBBC8
:10007800F1E0F5BFE5BFF8E1A895A4B7A77FA4BF55
:10008800F0936000E09360008DE0A2E0BB27ED9361
:100098008A95E9F780E098E0A0E0B1E0ED93019758
:1000A800E9F7EAE6F0E085919591009761F0A5916E
:1000B800B59105901590BF01F00105900D9201973B
:1000C800E1F7FB01F0CFE0E0EEBBEFEFEDBFE8E0DA
:1000D800EEBFC0E0D3E00C949202AA93E881E0302E
:1000E80011F45D9801C05D9A588014C2AA93E091FA
:1000F8000203E03011F00C947D02A0910B03A430B0
:1001080010F0A63108F009C0A0910C03A03021F02E
:10011800A0910C03A13009F401C0E7C16624E0E016
:10012800E09305030E9437050E943C0534F40E94C1
:1001380042056E0E0E944905F5CF0E943705E55F1E
:10014800FC4FE081E61511F00C9475026624E0E09E
:10015800E0930303E0930403E1E0E0930603E0E0A7
:10016800E0930703E0910C03E03011F00C943C019C
:10017800E2E0E09305030E9437050E943C0514F075
:100188000C943801E0910303E03031F40E944205F9
:10019800E0930403E1E063C00E944F05A1F40E94CC
:1001A8004205F0E0309761F0E130A0E0FA0711F481
:1001B800A0E007C0E230A0E0FA0711F4A2E001C015
:1001C800A1E08BDF4BC0E130A0E0FA0781F5E091B8
:1001D80003030E94540541F40E944205E03011F4E3
:1001E8002B9801C02B9A17C0E230A0E0FA0741F41F
:1001F8000E944205E03011F42A9801C02A9A0BC0E7
:10020800E330A0E0FA0739F40E944205E03011F427
:10021800299801C0299AA0910303A33011F4E0E0C2
:1002280003C0E0910303EF5FE09303031AC0E230D9
:10023800A0E0FA0741F40E944205E03011F45E980C
:1002480001C05E9A0BC0E330A0E0FA0751F40E94A7
:100258004205E03011F42C9801C02C9AE0E0E093BC
:1002680003030E94490587CFE0E0E093180338C1F3
:10027800E0E0E0930503A0910503A53148F40E944E
:100288005905E85EFC4FA0E0A0830E944905F3CF22
:10029800E2E0E09305030E9437050E943C0544F51F
:1002A8000E945D05E75EFC4FDF010E944205EC936A
:1002B8000E945905E55FFC4FA081A13021F4E0912F
:1002C8000603EC5F10C00E945905E55FFC4FA08152
:1002D800A53011F0A63021F4E0910603ED5F03C0CC
:1002E800E0910603EE5FE09306030E944905D3CF31
:1002F800E0910603EF5FE0930603E2E0E093050375
:10030800E0910603A0910503AE1710F00C94520279
:10031800E0910703E03049F40E945905E85EFC4F7C
:10032800E081E0930403E1E0B4C00E944F0501F5C9
:10033800E52DF0E0309731F40E945905E85EFC4F56
:10034800A1E013C0E130A0E0FA0731F40E9459059A
:10035800E85EFC4FA0E009C0E230A0E0FA0731F403
:100368000E945905E85EFC4FA2E0A083E0E091C03E
:10037800E130A0E0FA0761F50E94610539F40E94B6
:100388005905E85EFC4FA091080315C0E230A0E0D3
:10039800FA0739F40E945905E85EFC4FA091090359
:1003A8000AC0E330A0E0FA0739F40E945905E85E74
:1003B800FC4FA0910A03A083A0910703A33011F476
:1003C800E0E003C0E0910703EF5FE093070363C039
:1003D800E230A0E0FA0741F40E946405E0E0F399F6
:1003E800E1E0EC93E0E055C0E330A0E0FA0741F427
:1003F8000E946405E0E0F299E1E0EC93E0E049C096
:10040800E430A0E0FA0741F40E946405E0E0F199C5
:10041800E1E0EC93E0E03DC0E530A0E0FA07E1F46C
:100428000E94610531F40E945905E85EFC4FB082D4
:1004380007C0E230A0E0FA0719F40E946405CC92E4
:10044800A0910703A23011F4E0E003C0E091070394
:10045800EF5FE09307031FC0E630A0E0FA07D9F486
:100468000E94610531F40E945905E85EFC4FD08274
:1004780007C0E230A0E0FA0719F40E946405EC9284
:10048800A0910703A23011F4E0E003C0E091070354
:10049800EF5FE09307030E94490532CFE09106031E
:1004A800EF5FE0930603E0931803E1E0E09319039C
:1004B800E0E0E09305030E945D0531970E943C054A
:1004C8004CF40E945905E85EFC4FE0816E0E0E94D4
:1004D8004905F1CF0E945D053197E85EFC4F6082C7
:1004E80003C0EFEFE093180303C0EFEFE0931803A6
:1004F80001C00FC0E881E03061F4A0910103EDE094
:100508000E94790507C0AA93E881E03011F4E5E17B
:1005180001C0E0E021960895F0981895E0E8E0938E
:100528006100E0E0E0936100E5B9EEE1E4B9E0E004
:10053800E8B9E7B9E4E0EBB9E0E6EAB9E0E0E4BD40
:10054800E5E0E5BDE0E0E6BDE7BDE8BDE09380009D
:10055800E0938100E0938500E0938400E0938700B6
:10056800E0938600E0938900E0938800E0938B0095
:10057800E0938A00E093B600E093B000E093B10006
:10058800E093B200E093B300E093B400E093690015
:10059800EDBBE0936800E1E0E0936E00E0E0E093FB
:1005A8006F00E0937000E093C100E0E8E0BFE0E096
:1005B800E0937B00E0937F00E0E4E0937C00E7E8D1
:1005C800E0937A00E0E0ECBDE093BC00EA93EFE052
:1005D800EA93EBE0F3E0FA93EA93EDE0EA93E8E1DB
:1005E800F3E0FA93EA93EAE7F0E0FA93EA93A7E8EC
:1005F800B2E088D04424772488249924AA24332478
:10060800BB24CC24DD24EE24E1E05E2EF198F298A0
:10061800F398E0E0E0930803E0930903E0930A030A
:100628007894F09AE0E02B99E1E0E0930803E0E0A9
:100638002A99E1E0E0930903E0E02999E1E0E093F9
:100648000A035E9902C0F39801C0F39A4A9902C05E
:10065800F29801C0F29A2C9B07C04394EAE0E41593
:1006680011F42C98442401C04424552011F00C9412
:100678008203E0917C00EE7F0E946A05E0917A0097
:10068800E074E034D9F3E0917800F09179007E0EBF
:100698008F1EE0917C00E1600E946A05E0917A007B
:1006A800E074E034D9F3E0917800F09179009E0E7F
:1006B800AF1E3394E8E0E31509F5E72DF82D0E9405
:1006C8007205BE2ECF2EE92DFA2D0E947205DE2E60
:1006D800EF2EE8EEF3E0EB15FC0518F45D9AE2E086
:1006E8005E2EE2E3F0E0EB15FC0510F4F19A01C090
:1006F800F1983324772488249924AA24F099FECFEA
:1007080090CFFFCFBA93AA93F59AE7E0E09302035C
:10071800EF81F885E0933103F0933203EE81E093A3
:100728003403EC81FD81E0932E03F0932F03EA81DB
:10073800FB81E0933503F0933603E881F981E09378
:100748003703F0933803E8B1E063E8B9EA85E030AD
:1007580011F0E1E002C0E985EE0FE093BA00E09104
:10076800BC00E078E564E093BC002B9608950A92FB
:100778001A92FA926A937A938A939A93AA93BA935B
:10078800EA93FA93EFB7EA930E947E05109101036A
:10079800009100033091300320910203E12FA091D2
:1007A8003103B0913203F0E0EA0FFB1FAF01E09193
:1007B800B900E87FE83011F420E002C0E03119F414
:1007C800E0912D0310C0E83111F0E83241F503172C
:1007D80098F4E02F0F5FA0912E03B0912F03F0E063
:1007E800AE0FBF1FEC91E093BB00E091BC00EF702F
:1007F800E068E093BC0012C0E09133031E1768F470
:10080800E0912D03E160E0932D03F498E091BC00A2
:10081800EF70E06AE093BC000DC138C00BC1E03551
:1008280031F4E091BB00DA01EC931F5F02C0E034C1
:1008380089F4E0913303E1501E1728F0E091BC00E1
:10084800EF70E06804C0E091BC00EF70E06CE093EA
:10085800BC00F0C0E83531F4E091BB00DA01EC935C
:100868001F5F02C0E03209F402C0E03309F402C09D
:10087800E83469F4203051F4F49B03C0031728F0DE
:1008880005C0E09133031E1708F424E0CCC0E83318
:1008980031F422E0E091BC00EF70E068C8C0E836AF
:1008A80011F0E83711F422E005C0E03611F0E03726
:1008B800A1F420E010E0F498E0913403E03031F442
:1008C80021E0E091BC00EF70E06804C0E091BC005A
:1008D800EF70E06CE093BC00ADC0E03811F0E03997
:1008E80039F5F49B02C021E09EC0E091BB00DA011B
:1008F800EC931F5FE09134031E17C0F4E0913503B9
:10090800F0913603309711F426E08DC0A0E0E09115
:100918003503F09136030995E03039F0E091BC00D9
:10092800EF70E06CE093BC0085C001C0F49A02C08F
:10093800E83809F402C0E83939F4E091BC00EF70F6
:10094800E068E093BC0076C0E03AB1F4E091BC0006
:10095800EF70E06CE093BC00F59AE0913503F091FC
:100968003603309739F0A1E0E0913503F091360372
:10097800099501C026E05EC0E03B11F422E002C008
:10098800E83AB1F4E0913703F0913803309759F021
:10099800A0E0E0913703F091380309953E2FE0304D
:1009A80011F020E002C026E03EC000E0F49802C04A
:1009B800E83BF9F4F49B02C021E035C0E02F0F5F5B
:1009C800A0912E03B0912F03F0E0AE0FBF1FEC9162
:1009D800E093BB00031728F4E091BC00EF70E06CD3
:1009E80005C0F49AE091BC00EF70E068E093BC00A9
:1009F80021C0E03C11F0E83C99F4E091BC00EF70B4
:100A0800E06CE093BC00E0913703F0913803309735
:100A180031F0A1E0E0913703F0913803099509C05E
:100A2800E03041F423E0E091BC00EF70E06DE0932A
:100A3800BC00F59A1093010300930003209302036E
:100A4800309330030E9485052696E991EFBFF9910E
:100A5800E991B991A9919991899179916991F990BF
:100A6800199009901895E0910B03F0E031970895DB
:100A7800A0910503B0E0AE17BF070895E091050304
:100A8800F0E0E55FFC4FE0810895E0910503EF5F3A
:100A9800E09305030895E0910403F0E0309708958A
:100AA800F0E0E130A0E0FA070895E0910503F0E0F6
:100AB8000895E0910603F0E00895E0910703F0CF70
:100AC800A0910503B0E0A85EBC4F0895E0937C00B8
:100AD800E0917A00E064E0937A000895F695E7954E
:100AE800F695E795F695E7950895AE17E1E008F0D5
:100AF800EE2708955A934A933A932A931A930A939E
:100B080008955D814C813B812A811981088108956E
:00000001FF
