:060000000C9434000C9486
:1000060000000C9400000C9400000C9400000C946A
:1000160000000C9400000C9400000C9400000C945A
:1000260000000C9400000C9400000C9400000C944A
:1000360000000C9400000C9400000C9400000C943A
:1000460000000C9400000C9400000C9400000C942A
:1000560000000C9400000C9400000C9400000C941A
:100066000000F894EE27EFBBF1E0F5BFE5BFF8E13D
:10007600A895A4B7A77FA4BFF0936000E0936000A3
:100086008DE0A2E0BB27ED938A95E9F780E098E042
:10009600A0E0B1E0ED930197E9F7E0E0EEBBEFEF0A
:1000A600EDBFE8E0EEBFC0E0D3E00C945A00E0E814
:1000B600E0936100E0E0E0936100E5B9EFEFE4B9B9
:1000C600E0E0E8B9E7B9EBB9EAB9E4BDE5BDE6BDFC
:1000D600E7BDE8BDE0938000E0938100E0938500F2
:1000E600E0938400E0938700E0938600E093890024
:1000F600E0938800E0938B00E0938A00E093B600DB
:10010600E093B000E093B100E093B200E093B30057
:10011600E093B400E0936900EDBBE0936800E093E0
:100126006E00E0936F00E0937000E093C100E0E89A
:10013600E0BFE0E0E0937B00E0937F00E0937A008D
:10014600ECBDE093BC00EFEF04D0E0E002D0FBCFC3
:10015600FFCFE5B9A4E6B0E00C94B100109639F0F3
:1001660080EA9FE00197F1F7A8951197C9F70895DE
:00000001FF
